:020000040800F2
:10000000E03C002091010008512B0008DF2100088E
:10001000F526000809060008BD36000800000000AB
:10002000000000000000000000000000273300086E
:100030000D06000800000000652F00085933000875
:10004000AB010008AB010008AB010008ED3000086F
:10005000AB010008AB010008AB010008AB010008D0
:10006000AB010008AB010008AB010008AB010008C0
:10007000AB010008AB010008AB010008AB010008B0
:10008000AB010008AB010008AB010008AB010008A0
:10009000AB010008AB010008AB01000839060008FD
:1000A000AB010008AB010008AB010008AB01000880
:1000B000B9330008C9330008D9330008AB01000880
:1000C000AB010008AB010008AB010008AB01000860
:1000D000AB010008AD360008AB010008AB01000819
:1000E00011060008AB010008AB01000800F002F89F
:1000F00000F03EF80AA090E8000C82448344AAF184
:100100000107DA4501D100F033F8AFF2090EBAE881
:100110000F0013F0010F18BFFB1A43F0010318473B
:10012000946A0000B46A0000103A24BF78C878C10D
:10013000FAD8520724BF30C830C144BF04680C60ED
:10014000704700000023002400250026103A28BF35
:1001500078C1FBD8520728BF30C148BF0B60704739
:100160001FB59DE8030000F009F91FBD10B510BDD3
:1001700000F087F91146FFF7F3FF04F0EBF800F009
:10018000A5F903B4FFF7F2FF03BC03F0B5FA0000D2
:100190000948804709480047FEE7FEE7FEE7FEE71B
:1001A000FEE7FEE7FEE7FEE7FEE7FEE70448054957
:1001B000054A064B7047000061330008ED00000857
:1001C000E0290020E03C0020E0380020E03800205A
:1001D000704770B5064600F0B5F8056806F10B00EB
:1001E00020F00704B4429CBF002070BD2B466A6813
:1001F000BAB11068A04210D304F1080188423CBF94
:100200005068586007D35168101941601168091B84
:10021000016058601460101D70BD13465268002ABA
:10022000E7D12146284600F095F80028DED170BDC0
:1002300010B5431C02E010F8011B71B18107FAD11F
:100240004FF0013202C88C1A8C4314EAC211F9D063
:10025000C01A0A0603D0C01E10BDC01A10BD0A0481
:1002600001D0801E10BD0902FCD0401E10BD4FF011
:10027000000200B5134694469646203922BFA0E8F6
:100280000C50A0E80C50B1F12001BFF4F7AF090702
:1002900028BFA0E80C5048BF0CC05DF804EB8900F3
:1002A00028BF40F8042B08BF704748BF20F8022B36
:1002B00011F0804F18BF00F8012B70474FF0013C40
:1002C00050F8042B51F8043B9A4221D1A2EB0C03C5
:1002D000934313EACC1317D150F8042B51F8043B85
:1002E0009A4215D1A2EB0C03934313EACC130BD122
:1002F00050F8042B51F8043B9A4209D1A2EB0C03AD
:10030000934313EACC13DBD04FF00000704700BFDB
:10031000D01A01BAB1FA81F101F0180122FA01F004
:10032000CB40C1F12001DBB2C0B2C01A2CFA01F3FC
:10033000D11A914311EAC311E6D170477047704753
:100340007047704700487047882900207047704701
:100350007047704738B504460A4600206946AFF337
:100360000080002808BF38BD02460099204600F0F2
:1003700067F8012038BD012000F07CB8F8B5AFF374
:100380000080054600200C46102000BF0646A81934
:10039000A0420DD9324669460020AFF30080070025
:1003A00008BF00F067F80098A04218BF0546C419BE
:1003B000FFF7C8FF05600746F01D20F0070046194B
:1003C000284600F00AF8B44208BFF8BDA21B314627
:1003D0003868BDE8F84000F033B800210160C0E99A
:1003E000011070471020704770B50446051FFFF7D5
:1003F000A9FF0068002C14BF446870BD002C18BF12
:10040000AC423CBF20466468F8D301680A18AA428F
:1004100018BF456003D12A68054611440160286869
:100420004119A1421CBF6C6070BD616869602168A0
:100430000844286070BD00000048704780290020F3
:10044000034640688C46002818BF88423CBF0346DC
:100450004068F8D318681844884207D00CF10300AC
:1004600020F00700001D411A521A0146081D0A60BB
:10047000FFF7BABF10B500F037F8BDE8104000F044
:100480002EB87546FFF7D8FFAE46050069465346BD
:1004900020F00700854618B020B5FFF787FEBDE8BD
:1004A00020404FF000064FF000074FF000084FF0DB
:1004B000000B21F00701AC46ACE8C009ACE8C0096C
:1004C000ACE8C009ACE8C0098D46704710B50446D9
:1004D000AFF300802046BDE81040FFF752BE002871
:1004E00001D003F009B9704710B5012805D00021EB
:1004F00003A000F021F8012010BD09A1F8E70000D9
:1005000053494752544D454D3A204F7574206F66FC
:100510002068656170206D656D6F72790000000064
:100520003A2048656170206D656D6F727920636F48
:10053000727275707465640070B505460C460A20C9
:1005400000E06D1C03F0DAF835B128780028F8D106
:1005500002E0641C03F0D2F814B120780028F8D12E
:10056000BDE870400A2003F0C9B8000000B585B0AE
:1005700000BF0E48806940F008000C4988610846B9
:10058000806900F00800009000BF00BF01200290C9
:1005900000030190002003900320049001A9044867
:1005A00000F04CF900F006F805B000BD0010024064
:1005B000000C014010B501221103024800F0D6FAE8
:1005C00010BD0000000C014010B500224FF4805116
:1005D000014800F0CBFA10BD000C014010B54FF4FB
:1005E0008051084800F0BAFA012802D1FFF7ECFF69
:1005F00007E04FF48051034800F0B0FA08B9FFF764
:10060000D9FF10BD000C014000BFFEE7704700009D
:1006100010B54FF4006000F003F94FF40060054995
:100620000860401000F0FCF84FF480600149086059
:1006300010BD00001404014010B5802000F0F0F857
:1006400080200149086010BD1404014000B585B048
:1006500000BF1248806940F00800104988610846D0
:10066000806900F00800009000BF00BF0C480290B5
:100670004FF440600190022003900320049001A9F0
:10068000084800F0DBF800220721282000F0D1FA0A
:10069000282000F0BEFA05B000BD000000100240A6
:1006A00000001110000C014070B50446002594F8BC
:1006B0002100022803D00420A063012548E020681F
:1006C000006820F00E00216808602068006820F0B3
:1006D0000100216808601F492068884201D101207B
:1006E00026E01C4914312068884201D110201FE007
:1006F000184928312068884201D1801518E0154931
:100700003C312068884201D1801411E011495031F8
:100710002068884202D14FF4803009E00D496431ED
:100720002068884202D14FF4801001E04FF08070C1
:10073000084908394860012084F8210000BF0020E2
:1007400084F8200000BF606B10B12046616B8847C1
:10075000284670BD0800024010B50446A0B203F060
:10076000BDFA10BD10B50446B4F5006F1ED14FF4AC
:100770008061244800F0F2F9012841D12248007834
:10078000401C40B22049087020480078012803D05E
:100790001E480078022802D101201D4908701D481A
:1007A000007820BB01201C49087029E0B4F5806F57
:1007B0001ED14FF40061134800F0D0F901281FD179
:1007C00011480078401E40B20F4908700F48007869
:1007D000012803D00D480078022802D102200C49DC
:1007E00008700C48007810B902200B49087007E027
:1007F000802C05D1142003F071FA012007490870FC
:1008000010BD0000000C01404A00002071000020D3
:100810004B000020700000204C0000204900002008
:1008200010B5044604480068204020B10248046026
:100830002046FFF797FF10BD140401402DE9F8474B
:100840000346002294466EE14FF0010808FA02F4D4
:10085000D1F8008008EA0400A0427DD1DFF8DCA2D4
:10086000D1F80480A8EB0A09D0453AD014DCB8F1DD
:10087000030F50D009DCB8F1000F31D0B8F1010FEF
:100880001CD0B8F1020F49D120E0B8F1110F18D0F7
:10089000B8F1120F42D11EE0B9F5881F25D006DC51
:1008A000B9F5803F20D0B9F5801F37D11AE0B9F5EE
:1008B000001F18D0B9F5041F30D117E0D1F80CC0D3
:1008C0002DE0D1F80C8008F1040C28E0D1F80C8060
:1008D00008F1080C23E0D1F80C8008F10C0C1EE0A4
:1008E00000BF00BF00BF00BF00BF00BFD1F808803D
:1008F000B8F1000F02D14FF0040C0BE0D1F80880E2
:10090000B8F1010F03D14FF0080C1C6102E04FF069
:10091000080C5C6103E04FF0000C00E000BF00BF7A
:10092000FF2801D8984601E003F104084646FF2855
:1009300002D84FEA820803E0A2F108084FEA8808CB
:100940004746D6F800804FF00F0909FA07F928EA60
:1009500009080CFA07F900E088E048EA0908C6F837
:100960000080D1F8048008F08058B8F1805F7DD114
:1009700000BFDFF8CC81D8F8188048F00108DFF814
:10098000C091C9F81880C846D8F8188008F0010846
:10099000CDF8008000BF00BF4FEAB9384FEA920996
:1009A00058F829504FEA82784FEA18794FF00F082B
:1009B00008FA09F825EA0805DFF88881434502D1DD
:1009C0004FF0000816E0DFF88081434502D14FF078
:1009D00001080FE0DFF87481434502D14FF00208AF
:1009E00008E0DFF86C81434502D14FF0030801E0D5
:1009F0004FF004084FEA82794FEA197908FA09F8AA
:100A000048EA0505DFF84C814FEA920948F8295079
:100A1000D1F8048008F48038B8F5803F0AD1DFF8B7
:100A20003881D8F8008048EA0008DFF82C91C9F82E
:100A3000008009E0DFF82081D8F8008028EA00086B
:100A4000DFF81491C9F80080D1F8048008F4003868
:100A5000B8F5003F10D1DFF8008108F10408D8F89C
:100A6000008048EA0008DFF8F09000E05AE009F161
:100A70000409C9F800800DE0DFF8DC8008F1040803
:100A8000D8F8008028EA0008DFF8CC9009F10409C2
:100A9000C9F80080D1F8048008F48018B8F5801FE8
:100AA0000ED1DFF8B48008F10808D8F8008048EAD1
:100AB0000008DFF8A49009F10809C9F800800DE0EA
:100AC000DFF8948008F10808D8F8008028EA0008C8
:100AD000DFF8849009F10809C9F80080D1F8048092
:100AE00008F40018B8F5001F0ED1DFF86C8008F18B
:100AF0000C08D8F8008048EA0008DFF85C9009F19B
:100B00000C09C9F800800DE0DFF84C8008F10C08F2
:100B1000D8F8008028EA0008DFF83C9009F10C09B9
:100B2000C9F80080521CD1F8008028FA02F8B8F108
:100B3000000F7FF489AEBDE8F887000000001110B7
:100B40000010024000080140000C0140001001406C
:100B5000001401400800014000040140024693686F
:100B60000B400BB1012000E0002070470AB1016189
:100B700001E00B0403617047014800687047000002
:100B800074000020034800680349097808440149BB
:100B900008607047740000207C00002010B50848F1
:100BA000006840F0100006490860032000F080F85B
:100BB0000F2000F007F800F02BF8002010BD000017
:100BC0000020024070B504460E4800784FF47A7158
:100BD000B1FBF0F00C490968B1FBF0F5284600F0D4
:100BE0007BFF08B1012070BD102C07D200222146E6
:100BF000501E00F01EF80548046001E00120F2E7F5
:100C00000020F0E77C000020000000207800002099
:100C1000704701460846002809DB00F01F03012247
:100C20009A4043099B0003F1E023C3F8002100BF71
:100C300070472DE9F05F80460D461646002702F00A
:100C40003FFD074639462A46334601F00700C0F10A
:100C5000070ABAF1040F02D94FF0040A01E0C0F10B
:100C6000070AD14600F1040ABAF1070F02D24FF089
:100C7000000A01E0A0F1030AD4464FF0010A0AFA83
:100C800009FAAAF1010A0AEA020A0AFA0CFA4FF072
:100C9000010B0BFA0CFBABF1010B0BEA030B4AEA5D
:100CA0000B042146404602F013FDBDE8F09F000012
:100CB00000BF00F00702064B19684FF6FF0319400A
:100CC000044B0B4343EA0221014B196000BF7047FC
:100CD0000CED00E00000FA050120014908627047B0
:100CE00000000E42012190FAA0F2B2FA82F2034B08
:100CF00003EB8202C2F880107047000000000E4231
:100D00000748006840F0020005490860054800688F
:100D100040F004000349086000BF00BF30BF7047C7
:100D20000070004010ED00E02DE9F04385B006466C
:100D30003BA30FCB01AC0FC43DA0006800904FF067
:100D40000008002500270024A146012E30D0022EE5
:100D500055D0102E5ED137484468006800F080708E
:100D600000B301A8C4F38341475C04F4803070B140
:100D700030484068C0F340401DF8008004F48030E3
:100D800040B12D48B0FBF8F000FB07F502E02B481E
:100D900007FB00F52748406800F48000B0F5800F9D
:100DA00001D1A94603E068000321B0FBF1F932E06C
:100DB0002048046A04F44070B0F5807F05D104F047
:100DC000020010B14FF4004918E004F44070B0F58F
:100DD000007F07D11748406A00F0020010B149F6C1
:100DE00040490BE004F44070B0F5407F06D1114853
:100DF000006800F4003008B14FF224490BE000F025
:100E0000FBF80C494968C1F38131491C4900B0FB2A
:100E1000F1F900E000BF00BF484605B0BDE8F0832F
:100E200002030405060708090A0B0C0D0E0F10102B
:100E3000010200000010024000127A0000093D008B
:100E400070B504460D460CB9012070BD5A480068C3
:100E500000F00700A8420ED25748006820F00700B3
:100E60002843554908600846006800F00700A8427A
:100E700001D00120E9E7207800F0020002281DD10E
:100E8000207800F00400042805D14C48406840F464
:100E9000E0604A494860207800F00800082805D141
:100EA0004648406840F460504449486043484068C0
:100EB00020F0F000A168084340494860207800F025
:100EC000010078B36068012806D13C48006800F44E
:100ED000003090B90120B8E76068022806D1374891
:100EE000006800F0007040B90120AEE733480068A8
:100EF00000F0020008B90120A7E73048406820F060
:100F00000300616808432D494860FFF735FE064637
:100F100009E0FFF731FE801B41F28831884202D997
:100F2000032092E707E02548406800F00C00616864
:100F3000B0EB810FEDD12048006800F00700A84217
:100F40000ED91D48006820F0070028431A490860A0
:100F50000846006800F00700A84201D0012074E7AD
:100F6000207800F00400042807D11448406820F4D9
:100F7000E060E168084311494860207800F008000B
:100F8000082808D10D48406820F46050216940EAE3
:100F9000C1000A49486000F03FF808494968C1F3B8
:100FA0000311074A515CC8400649086006480068BA
:100FB000FFF708FE002048E7002002400010024032
:100FC000985E0008000000207800002001480068BA
:100FD000704700000000002000B5FFF7F7FF04494C
:100FE0004968C1F30221034A515CC84000BD0000BA
:100FF00000100240A85E000800B5FFF7E7FF0449B3
:101000004968C1F3C221034A515CC84000BD0000D9
:1010100000100240A85E0008F0B585B00FF26C0C1D
:101020009CE8E01001A8A0E8E0101CA52D68009540
:1010300000210022002300240020194D696801F0DE
:101040000C05F5B1042D02D0082D19D101E0154889
:1010500019E001ADC1F38346AC5D01F4803555B1B3
:101060000F4D6D68C5F340451DF805200D4D6543D6
:10107000B5FBF2F302E00C4D04FB05F3184602E069
:1010800000BF084800BF00BF05B0F0BD0203040563
:10109000060708090A0B0C0D0E0F101001020000C4
:1010A0000010024000127A0000093D00F8B5044625
:1010B0000CB90120F8BD207800F00100002878D09C
:1010C000F848406800F00C0004280CD0F54840684F
:1010D00000F00C00082811D1F248406800F480307C
:1010E000B0F5803F0AD1EF48006800F400300028D6
:1010F0005FD0606800285CD10120DBE700BF60683A
:10110000B0F5803F06D1E748006840F48030E549FB
:10111000086028E0606858B9E248006820F4803030
:10112000E04908600846006820F4802008601AE062
:101130006068B0F5A02F0BD1DA48006840F4802039
:10114000D84908600846006840F4803008600AE02A
:10115000D448006820F48030D2490860084600680E
:1011600020F48020086000BF606888B1FFF704FDAC
:10117000054606E0FFF700FD401B642801D9032067
:1011800098E7C848006800F400300028F2D010E06A
:10119000FFF7F2FC054606E0FFF7EEFC401B642873
:1011A00001D9032086E7BF48006800F4003000281A
:1011B000F2D1207800F00200022857D1B9484068E7
:1011C00000F00C0050B1B748406800F00C0008284F
:1011D00018D1B448406800F4803098B9B14800682C
:1011E00000F0020020B12069012801D0012061E750
:1011F000AC48006820F0F800616940EAC100A949E4
:10120000086033E02069E8B10120A7490860FFF7D2
:10121000B3FC054606E0FFF7AFFC401B022801D9EE
:10122000032047E79F48006800F002000028F2D042
:101230009C48006820F0F800616940EAC1009949C3
:10124000086013E0002098490860FFF795FC054608
:1012500006E0FFF791FC401B022801D9032029E793
:101260009048006800F002000028F2D1207800F0D9
:10127000080008282DD1A069B8B101208B49086069
:10128000FFF77AFC054606E0FFF776FC401B0228D4
:1012900001D903200EE78348406A00F002000028CD
:1012A000F2D0012001F060FE13E000207F490860C9
:1012B000FFF762FC054606E0FFF75EFC401B0228D4
:1012C00001D90320F6E67748406A00F002000028C2
:1012D000F2D1207800F00400042873D1002771486F
:1012E000C06900F0805070B900BF6E48C06940F01E
:1012F00080506C49C8610846C06900F08050009079
:1013000000BF00BF01276A48006800F48070B0B9D0
:101310006748006840F4807065490860FFF72CFC5E
:10132000054606E0FFF728FC401B642801D903208E
:10133000C0E65F48006800F480700028F2D000BF6B
:10134000E068012806D15748006A40F0010055497D
:10135000086227E0E06858B95248006A20F00100AE
:10136000504908620846006A20F00400086219E04B
:10137000E06805280BD14B48006A40F00400494959
:1013800008620846006A40F0010008620AE0454829
:10139000006A20F00100434908620846006A20F014
:1013A0000400086200BFE068A0B1FFF7E5FB054656
:1013B00009E0FFF7E1FB401B41F28831884202D986
:1013C000032077E622E03748006A00F00200002898
:1013D000EFD012E0FFF7D0FB054608E0FFF7CCFBAB
:1013E000401B41F28831884201D9032062E62D4832
:1013F000006A00F002000028F0D1012F05D1294831
:10140000C06920F080502749C86100BFE069C8B3B7
:101410002448406800F00C00082860D0E0690228E9
:1014200048D1002020490866FFF7A6FB054606E0E4
:10143000FFF7A2FB401B022801D903203AE6194816
:10144000006800F000700028F2D1206AB0F5803FFB
:1014500007D11448406820F40030A16808431149BE
:101460004860D4E9080108430E49496821F4741121
:1014700008430C49486001200B490866FFF77CFBD4
:10148000054607E03DE0FFF777FB401B022801D946
:1014900003200FE60348006800F000700028F2D037
:1014A0002FE000000010024000004242800442424F
:1014B00000700040002014490866FFF75DFB0546F8
:1014C00006E0FFF759FB401B022801D90320F1E594
:1014D0000E48006800F000700028F2D111E0E069C9
:1014E000012800D1E6E50948466806F48031206A03
:1014F000814204D106F47011606A814201D001205A
:10150000D8E50020D6E5000000004242001002406D
:1015100010B5034600220020024A02EB8102146843
:10152000A0B210BD006C004010B503460020034877
:1015300000EB810094B2046010BD0000006C00401C
:1015400010B504460120034908700021072003F06C
:101550006FFC10BD2A00002010B50446206800680A
:10156000C0F3400058B120684068C0F3400030B17B
:101570002046FFF7E5FF6FF00200216848604FF456
:101580000030024908600120607410BD140401405D
:10159000F8B505460C4616460020009005B10CB97A
:1015A0000120F8BD00226946284600F01AF808B16B
:1015B0000120F6E7287B2070E87BE070687B607094
:1015C000A87BA0705EB1E07801F0EDFCE07060787F
:1015D00001F0E9FC6070A07801F0E5FCA07000204B
:1015E000DFE72DE9F04780460C46914600250026AE
:1015F000AA460027B8F1000F00D014B90120BDE8B9
:10160000F087D8F800004068C0F3800008B10120DE
:10161000F5E7404601F0DBFD05464FF46160B5FBA0
:10162000F0F7B5FBF0F100FB11503C21B0FBF1F0FD
:1016300060704FF46160B5FBF0F100FB11503C218C
:10164000B0FBF1F201FB1200A070182F39D3182063
:10165000B7FBF0FAB7FBF0F100FB117020704046C9
:1016600001F0A9FD0646701C18B1AE4201D9761BE7
:1016700001E04FF0FF360AEB4A00C000C0EB40111A
:10168000C1EB0020A5EB00152946404601F034FED1
:1016900008B10120B3E7701C38B12E4431464046F2
:1016A00001F013FE40B10120A9E73146404601F0A8
:1016B0000CFE08B10120A2E75146404601F080FC33
:1016C00000E02770B9F1000F0BD0207801F06BFC1F
:1016D0002070607801F067FC6070A07801F063FC16
:1016E000A07000208BE7000070B5044600250CB9FF
:1016F000012070BD607C20B900202074204600F0DD
:101700005BF802206074204600F0C6F918B104208E
:1017100060740120EDE7204601F0ADFC18B1042013
:1017200060740120E5E72068406820F00700216828
:101730004860A06828B11F48006820F001001D49DA
:1017400008601C48001F006820F46070A16808430E
:101750001849091F08606068401C08B1656809E005
:101760000120FFF7E1FA05461DB90420607401204D
:10177000BFE76D1E2068806820F00F0040EA15402A
:10178000216888602068C06865F30F002168C86020
:10179000204601F08DFC18B1042060740120A8E7F8
:1017A0000021E17301216173A173012060740020A5
:1017B0009FE70000306C0040704700002DE9F843BF
:1017C00004460D46174600260020009004B115B9C6
:1017D0000120BDE8F88300BF207C012801D1022050
:1017E000F7E70120207400BF0220607400226946E0
:1017F0002046FFF7F6FE08B10120EAE79DF8000059
:101800004FF4616148439DF80110C1EB011100EBF9
:1018100081009DF8021000EB01085FB928784FF4B1
:10182000616148436978C1EB011100EB8100A9783F
:10183000461812E0287801F0ABFB4FF4616100FB21
:1018400001F9687801F0A4FBC0EB001009EB8009F6
:10185000A87801F09DFB09EB0006464501D2174828
:1018600006443146204601F030FD38B10420607452
:1018700000BF0020207400BF0120AAE76FF0020023
:10188000216848602068006840F002002168086014
:101890000B48006840F400300949086008480830E7
:1018A000006840F400300649083108600120607487
:1018B00000BF0020207400BF00BF8AE780510100F4
:1018C000000401402DE9F04704460D4690460026ED
:1018D0000027B14604B115B90120BDE8F08700BF6B
:1018E000207C012801D10220F7E70120207400BFED
:1018F00002206074B8F1000F06D1E978E1736978CD
:101900006173A978A1730BE0E87801F041FBE07303
:10191000687801F03DFB6073A87801F039FBA07393
:10192000A27B617BE07B01F08EFC2073207B287022
:10193000204601F04CFC06464FF46160B6FBF0F91E
:10194000B9F1180F2FD91820B9FBF0F000EB4000C7
:10195000C000C0EB4011C1EB0020A6EB00163146E1
:10196000204601F0C9FC38B10420607400BF00209B
:10197000207400BF0120B0E7204601F01CFC0746A0
:10198000781C80B1B7420ED20B4807443946204636
:1019900001F09BFC38B10420607400BF002020746B
:1019A00000BF012099E70120607400BF002020746F
:1019B00000BF00BF91E70000805101002DE9F04712
:1019C00004460D4690460026002704B115B90120B3
:1019D000BDE8F08700BF207C012801D10220F7E795
:1019E0000120207400BF02206074B8F1000F0BD1F9
:1019F00028784FF4616148436978C1EB011100EB2D
:101A00008100A978461812E0287801F0C1FA4FF455
:101A1000616100FB01F9687801F0BAFAC0EB0010CF
:101A200009EB8009A87801F0B3FA09EB000631460A
:101A3000204601F061FC38B10420607400BF002032
:101A4000207400BF0120C3E72068406820F0050033
:101A500021684860204601F0AEFB0746781C80B143
:101A6000B7420ED20B4807443946204601F02DFC00
:101A700038B10420607400BF0020207400BF012032
:101A8000A6E70120607400BF0020207400BF00BFE3
:101A90009EE700008051010070B5044600250CB996
:101AA000012070BD2068406820F00800216848606F
:101AB000FFF762F8054607E0FFF75EF8401BB0F558
:101AC0007A7F01D90320ECE72068406800F0080025
:101AD0000028F1D00020E4E770B504462546681ED2
:101AE000B0F1807F01D301200FE0681E4FF0E021AC
:101AF00048610F214FF0FF3001F0EAFD00204FF068
:101B0000E021886107200861002070BD70477047A0
:101B100010B504460CB9012010BD94F83D0028B959
:101B2000002084F83C00204600F025F8022084F8CC
:101B30003D00211D206801F057FC012084F846007B
:101B400000BF84F83E0001213F200155402001558F
:101B50004120015500BF00BF012084F8420043200E
:101B60000155442001554520015500BF012084F84E
:101B70003D000020D0E77047014691F83D00012864
:101B800001D001207047022081F83D000868C0683C
:101B900040F001000B68D860124B086898420BD0E7
:101BA0000868B0F1804F07D00F4B0868984203D007
:101BB0000E4B086898420CD10868806800F0070254
:101BC000062A0CD00868006840F001000B68186015
:101BD00005E00868006840F001000B68186000200C
:101BE000D0E70000002C0140000400400008004045
:101BF00001460868C06820F001000A68D06000BF94
:101C00000868006A41F21112104050B90868006A71
:101C10009210104028B90868006820F001000A6896
:101C2000106000BF012081F83D0000207047704720
:101C300010B5044620680069C0F34000D8B12068A0
:101C4000C068C0F34000B0B16FF0020021680861C5
:101C5000012020772068806900F0030018B1204639
:101C6000FFF7E5FF05E0204600F0ADF8204600F064
:101C7000ABF80020207720680069C0F38000D8B15D
:101C80002068C068C0F38000B0B16FF00400216824
:101C90000861022020772068806900F4407018B144
:101CA0002046FFF7C4FF05E0204600F08CF82046F0
:101CB00000F08AF80020207720680069C0F3C00097
:101CC000D8B12068C068C0F3C000B0B16FF00800A0
:101CD00021680861042020772068C06900F00300B3
:101CE00018B12046FFF7A3FF05E0204600F06BF88F
:101CF000204600F069F80020207720680069C0F3D2
:101D00000010D8B12068C068C0F30010B0B16FF007
:101D1000100021680861082020772068C06900F45D
:101D2000407018B12046FFF782FF05E0204600F022
:101D30004AF8204600F048F8002020772068006923
:101D400000F0010058B12068C06800F0010030B117
:101D50006FF0010021680861204600F037F8206824
:101D60000069C0F3C01058B12068C068C0F3C0104B
:101D700030B16FF08000216808612046FFF7C6FE91
:101D800020680069C0F3801058B12068C068C0F3B3
:101D9000801030B16FF0400021680861204600F0EB
:101DA00057F820680069C0F3401058B12068C06837
:101DB000C0F3401030B16FF0200021680861204668
:101DC000FFF7A5FE10BD70477047000010B5044630
:101DD000174884420BD117480078012803D102200C
:101DE0001449087022E00120124908701EE01248D0
:101DF000844205D111480068401C1049086015E074
:101E00000F48844212D10F480088401C0D490880B9
:101E1000084600880C490988884207D101200B49EF
:101E2000087000BF0648FFF7E3FE00BF10BD0000CA
:101E30008C00002008000020D40000200C000020AE
:101E40001C010020100000201200002009000020CA
:101E5000704770472DE9F047044620680568206800
:101E6000C668206847694FF00008C14605F00F08B2
:101E7000B8F1000F0AD105F0200038B106F02000BB
:101E800020B1204601F014FBBDE8F087B8F1000F47
:101E900071D007F0010018B906F4907000286AD0DC
:101EA00005F0010030B106F4807018B1E06B40F02D
:101EB0000100E06305F0040030B107F0010018B143
:101EC000E06B40F00200E06305F0020030B107F083
:101ED000010018B1E06B40F00400E06305F0080079
:101EE00048B106F0200010B907F0010018B1E06B0E
:101EF00040F00800E063E06B68B305F0200028B113
:101F000006F0200010B1204601F0D2FA20684069A6
:101F1000C0F38019E06B00F0080010B9B9F1000FB0
:101F200022D0204601F0A4FA2068406900F0400069
:101F3000B0B12068406920F0400021684861606BC2
:101F400050B11848616B4863606BFEF7ADFB10B190
:101F5000606B416B88470CE02046FFF77AFF08E092
:101F60002046FFF776FF04E02046FFF772FF0020CF
:101F7000E06389E7FFE705F0800030B106F08000FC
:101F800018B1204601F062FB7EE705F0400030B159
:101F900006F0400018B1204601F07AFA74E700BF5D
:101FA00072E700005D34000810B504460CB901204A
:101FB00010BDA06900B100E000BF94F8390028B955
:101FC000002084F83800204600F028F8242084F807
:101FD00039002068C06820F400502168C86020469D
:101FE00001F0B6FA2068006920F490402168086189
:101FF0002068406920F02A00216848612068C06894
:1020000040F400502168C8600020E063202084F87C
:10201000390084F83A000020CAE7000010B586B005
:1020200004462849206888424AD100BF00BF26489C
:10203000806940F00400244988610846806900F006
:102040000400019000BF00BF00BF00BF00BF0846F2
:10205000806940F0040088610846806900F004004F
:10206000019000BF00BF00BF00BF00BF08468069ED
:1020700040F4804088610846806900F48040019007
:1020800000BF00BF00BF481502900220039001204E
:1020900004900320059002A90C48FEF7CFFB4FF4F3
:1020A000806002900020039002A90848FEF7C6FB5A
:1020B0002520FEF7AEFD032211462520FEF7B9FDCF
:1020C00006B010BD00380140001002400008014079
:1020D00010B5034693F83A0020282FD101B10AB970
:1020E000012010BD00BF93F83800012801D1022063
:1020F000F7E7012083F8380000BF99629A85DA85F6
:102100000020D863222083F83A0000BF002083F823
:10211000380000BF1868C06840F480701C68E06038
:102120001868406940F001001C6860611868C06868
:1021300040F020001C68E0600020D2E70220D0E7D9
:1021400010B504462049206888423BD11F480088CA
:1021500000F4004088BB1D48008800F4804070B146
:102160001B4800780A2803D000201849088024E082
:102170001648008840F40040144908801DE01448C7
:1021800000780D2806D11148008840F480400F499E
:10219000088012E00E4800780C490988C1F30D014F
:1021A0000C4A505409480088401C084908800846D9
:1021B0000088C72801DD0020088001220449064864
:1021C000FFF786FF10BD00000038014088000020A6
:1021D0008A0000207828002040290020704700BF96
:1021E000FEE700001FB50A48019080200090012002
:1021F00002900320039069460648FEF71FFB002269
:1022000004211720FEF715FD1720FEF702FD1FBD64
:10221000000011100008014000B585B000BF214842
:10222000806940F004001F4988610846806900F019
:102230000400009000BF00BF00BF0846806940F066
:10224000080088610846806900F00800009000BF1F
:1022500000BF002002902020019001200390032065
:10226000049001A91048FEF7E9FA8020019001A925
:102270000D48FEF7E3FA0120019001A90B48FEF793
:10228000DDFA0220019001A90848FEF7D7FA0120E3
:1022900001900220039001A90348FEF7CFFA05B090
:1022A00000BD00000010024000080140000C014089
:1022B00010B5012202210248FEF758FC10BD0000B3
:1022C0000008014010B5012204210248FEF74EFC2F
:1022D00010BD00000008014010B50122082102488D
:1022E000FEF744FC10BD00000008014000B585B0B9
:1022F00000BF1D48806940F004001B498861084602
:10230000806900F00400009000BF00BF00BF0846D5
:10231000806940F0400088610846806900F0400014
:10232000009000BF00BF0120029002200190002019
:1023300003900320049001A90C48FEF77FFA0420C3
:10234000019001A90948FEF779FA0820019001A936
:102350000648FEF773FAFFF7ABFFFFF7B3FFFFF78F
:10236000BBFF05B000BD00000010024000080140A6
:1023700010B500224FF400410E48FEF7F7FB00F0C5
:10238000ABF800224FF480410A48FEF7EFFB022031
:1023900001F0AEFC0122D1030648FEF7E7FB022064
:1023A00001F0A6FC00224FF400410248FEF7DEFBDC
:1023B00010BD0000000C014000B585B000BF124800
:1023C000806940F00800104988610846806900F083
:1023D0000800009000BF00BF012002904FF4404071
:1023E00001900320049001A90848FEF727FA012272
:1023F000D1030648FEF7BAFB012291030348FEF71A
:10240000B5FB05B000BD000000100240000C01400B
:1024100010B500224FF400410D48FEF7A7FB00F075
:102420005BF8012291030A48FEF7A0FB022001F0AD
:102430005FFC0122D1030648FEF798FB022001F061
:1024400057FC00224FF400410148FEF78FFB10BDFE
:10245000000C014070B50546002400F02BF8002662
:102460001CE000224FF400411148FEF77FFB0220E0
:1024700001F03EFC0122D1030D48FEF777FB600618
:10248000040E4FF480410A48FEF768FB08B1601C57
:10249000C4B2012001F02CFC701CC6B2082EE0DB97
:1024A00015B9FFF7B5FF01E0FFF762FF204670BDE9
:1024B000000C01401FB5002001904FF480400090B7
:1024C000012002900320039069460248FEF7B6F906
:1024D0001FBD0000000C01401FB5012001908003CA
:1024E00000900320039069460148FEF7A7F91FBD3D
:1024F000000C014070B50446FFF7EEFF00224FF4D8
:1025000000411348FEF732FB00251DE0E2094FF4BD
:1025100080410F48FEF72AFB6006040E022001F0FE
:10252000E7FB0122D1030A48FEF720FB022001F05D
:10253000DFFB00224FF400410548FEF717FB0220A5
:1025400001F0D6FB681CC5B2082DDFDB70BD0000B2
:10255000000C014010B5FFF7BFFF012291030D48A9
:10256000FEF704FB0122D1030A48FEF7FFFA04201C
:1025700001F0BEFB00224FF480410648FEF7F6FA58
:10258000042001F0B5FB00224FF400410148FEF7A2
:10259000EDFA10BD000C014010B5FFF79DFF0022C1
:1025A0004FF400410C48FEF7E1FA00224FF480415D
:1025B0000948FEF7DBFA042001F09AFB0122D1035F
:1025C0000548FEF7D3FA012291030348FEF7CEFA3D
:1025D000042001F08DFB10BD000C014010B500245B
:1025E000FFF768FF012291031248FEF7BFFA0120AE
:1025F00001F07EFB0122D1030E48FEF7B7FA01205D
:1026000001F076FB07E0601CC4B2FA2C03DDFFF793
:10261000C3FF012010BD4FF480410648FEF79EFA2B
:102620000028F0D100224FF400410248FEF79EFA44
:102630000020EFE7000C014000B585B000BF264840
:10264000806940F00800244988610846806900F0EC
:102650000800009000BF00BF002002904FF48040AF
:102660000190012003900320049001A91B48FEF76C
:10267000E5F8FFF7A1FE00F033F8C021022001F0D9
:1026800014FF0021032001F010FF0021042001F0BD
:102690000CFF0021052001F008FF0021062001F0B9
:1026A00004FF0F21082001F000FF0321092001F0A1
:1026B000FCFE27210A2001F0F8FE24210C2001F065
:1026C000F4FE24210D2001F0F0FE7F21102001F006
:1026D000ECFE05B000BD000000100240000C0140FF
:1026E00010B54021092001F0E0FE4021092001F051
:1026F000DCFE10BD00BFFEE770B50024854B002254
:10270000114685A001F0BCFA0446854B0022214603
:1027100084A001F0B5FAA060844B0122214684A078
:1027200001F0AEFAE060844B0222214683A001F062
:10273000A7FA2061844B0322214684A001F0A0FA6D
:102740006061854B0422214684A001F099FAA061C2
:10275000854B002273A0E16801F092FAE16888607D
:10276000824B012282A0E16801F08AFAE168C86028
:10277000824B022282A0E16801F082FAE1680861DE
:10278000824B032282A0E16801F07AFAE168486195
:10279000754B002263A0216901F072FA21698860FB
:1027A0007E4B01227EA0216901F06AFA2169C8608E
:1027B0007D4B02227DA0216901F062FA2169086146
:1027C000694B002257A0616901F05AFA616988607B
:1027D000784B012278A0616901F052FA6169C86002
:1027E000784B022278A0616901F04AFA61690861B8
:1027F000784B032278A0616901F042FA616948616F
:10280000E068784B0022C16846A001F039FAE1681F
:10281000C9688860E068744B0122C16873A001F048
:102820002FFAE168C968C8602069724B0022C1684C
:102830003CA001F025FA2169C968886020696E4BC7
:102840000122C1686DA001F01BFA2169C968C86046
:1028500020696C4B0222C1686BA001F011FA21695A
:10286000C96808616069404B0022C1682DA001F071
:1028700007FA6169C96888606069374B0122C168DD
:102880005AA001F0FDF96169C968C8606069604BD0
:102890000022016923A001F0F3F9616909698860E8
:1028A00060695C4B0122016954A001F0E9F961699A
:1028B0000969C8606069584B0022416919A001F09C
:1028C000DFF96169496988606069524B0122416999
:1028D0004AA001F0D5F961694969C8600820FDF78F
:1028E00078FC4E49086008460068046000200968CA
:1028F00008710120494909684871002506E0002156
:1029000046480068801D4155681CC5B2022DF6DBA3
:1029100070BD0000154C0008CAD7D1A1CFEE000051
:10292000C14D0008B7B5BBD800000000194F000822
:10293000C9E8D6C300000000D95A0008CAB5D3C3FD
:10294000B9A4BEDF0000000029420008D4CBB6AF16
:10295000BDA1BFB500000000532B0008C6E4CBFBAF
:10296000B2CBB5A500000000FD390008855900086C
:10297000CFA2C6C1C9E8D6C3000000002D5A000886
:10298000CAB1BCE4C9E8D6C30000000001370008A2
:10299000C4D6D6D3C9E8D6C300000000B14E0008A3
:1029A000C3EBB1ED000000009D3D0008CAD6B5E7BD
:1029B000CDB200001F5A0008CCE5CEC2B2E2C1BFC2
:1029C0000000000049420008D0C4C2CAB2E2C1BF40
:1029D00000000000DD3A0008D1AAD1F5B2E2C1BF83
:1029E00000000000695900087D590008C8B7B6A862
:1029F000000000004D4E0008614E0008BFAACABC8E
:102A000000000000D14E0008D6D8D6C30000000058
:102A1000354200086D420008C93A00086C000020E9
:102A200038B5002400BF4348C06940F00060414908
:102A3000C8610846C06900F00060009000BF00BF98
:102A400000BF0846C06940F08050C8610846C069B0
:102A500000F08050009000BF00BFFEF73DF901205C
:102A6000354908603348006A20F4407040F48070B3
:102A70003049086200BF0846006A40F00100086261
:102A800000BF8815FEF72EF947F6FF702B49486006
:102A900000212A4881602A48284908600846FEF734
:102AA00023FE002202210320FEF7C3F80320FEF7D5
:102AB000B0F800F045FC012002F0AEF958B902F080
:102AC0003DFA02F009FA022000F09EFF01210846BB
:102AD00002F0AEF906E0012002F09EF9012801D1D2
:102AE00001F028FB1748406800F00100E8B102F04F
:102AF00079F91548C0881449098908441249498957
:102B0000084484B2072002F087F900F0010060B1A8
:102B1000072002F081F9B4EB500F06D10021072005
:102B200002F086F9012009490870074801F01EFBF0
:102B300038BD0000001002403C0442426401002005
:102B40000028004000700040140000202A000020EF
:102B50007047704770B500240EE00021204600F059
:102B6000FCF8002504E0002000F0ECF9681CC5B278
:102B7000802DF8DB601CC4B2082CEEDB70BD0000B9
:102B800000B585B000BF1648806940F008001449C0
:102B900088610846806900F00800009000BF00BF0F
:102BA00011200290881501900020039003200490CA
:102BB00001A90C48FDF742FE4FF40070019001A9F5
:102BC0000848FDF73BFE012211020648FDF7CEFF43
:102BD000012251020348FDF7C9FF05B000BD000006
:102BE00000100240000C014070B50546002415E0BD
:102BF0008020204100EA05024FF400710E48FDF7E5
:102C0000B5FF012211020C48FDF7B0FF00224FF47E
:102C100080710948FDF7AAFF601CC4B2082CE7DBED
:102C2000012211020448FDF7A1FF00224FF4807138
:102C30000148FDF79BFF70BD000C014010B501225B
:102C400051020A48FDF792FF012211020748FDF7E1
:102C50008DFF00224FF400710448FDF787FF00222A
:102C60004FF480710148FDF781FF10BD000C014059
:102C700010B500224FF400710648FDF777FF0122DE
:102C800011020448FDF772FF012251020148FDF7CD
:102C90006DFF10BD000C014070B5002406E000255A
:102CA00000E06D1CB5F57A7FFBD3641CB4F57A7F28
:102CB000F5D3FFF765FFAE2000F034F9D52000F022
:102CC00031F9802000F02EF9A82000F02BF93F20E8
:102CD00000F028F9D32000F025F9002000F022F9B7
:102CE000402000F01FF9A12000F01CF9C82000F0DE
:102CF00019F9DA2000F016F9122000F013F98120FA
:102D000000F010F9CF2000F00DF9D92000F00AF9F9
:102D1000F12000F007F9DB2000F004F9302000F08A
:102D200001F9A42000F0FEF8A62000F0FBF88D20A9
:102D300000F0F8F8142000F0F5F8AF2000F0F2F8F9
:102D4000FFF708FF70BD10B50246012000E05043B8
:102D50000B1EA1F10101FAD110BD70B505460C465C
:102D600045F0B00000F0DEF8102141EA141000F048
:102D7000D9F804F00F0000F0D5F870BD2DE9F0414E
:102D800005460E461746721ED206110E6A1E5206E0
:102D9000100EFFF7E2FF002409E0A7F12001134A1B
:102DA00002EB0111085D00F0CDF8601CC4B2082CE4
:102DB000F3DB721ED206110E6A1E012303EB4202E0
:102DC000D0B2FFF7CAFF00240BE0A7F12001074AA9
:102DD00002EB011204F10801505C00F0B3F8601C32
:102DE000C4B2082CF1DBBDE8F0810000B05E000841
:102DF0002DE9F05F07460E4615464FF000094FF0EB
:102E00002E0BCA464EE0002444E02878284911F8E9
:102E10000910884238D16978254A09F10100105C0F
:102E2000814231D1A0464FF00009721E1207110EE7
:102E30007A1E5206100EFFF790FF002407E01D498E
:102E400001EB4811085D00F07DF8601CC4B2102C45
:102E5000F5DB721E1207110E7A1E012303EB4202EC
:102E6000D0B2FFF77AFF002409E0124901EB4812C3
:102E700004F11001505C00F065F8601CC4B2102C25
:102E8000F3DB701CC6B207E009F1020000F0FF0995
:102E9000601CC4B25C45B8DB00BFAD1C0AF1010088
:102EA00000F0FF0A28780028ADD1BDE8F09F0000AF
:102EB000A0640008FD6400082DE9F04780460E4636
:102EC00017461D46002415E0281B411E0A20FFF767
:102ED0003AFFB7FBF0F00A21B0FBF1F201FB120060
:102EE00000F130093019C1B24A464046FFF746FFAB
:102EF000601CC4B2AC42E7DBBDE8F0872DE9F041CD
:102F000007460E461546002407E02A5D3019C1B277
:102F10003846FFF733FF601CC4B2285D0028F4D1A7
:102F2000BDE8F08110B50446FFF788FE7820FFF772
:102F30005BFE0020FFF758FE2046FFF755FEFFF727
:102F400097FE10BD10B50446FFF778FE7820FFF716
:102F50004BFE4020FFF748FE2046FFF745FEFFF7F7
:102F600087FE10BD7047000008B508490968C90808
:102F70004FF47A72B1FBF2F14143009100BF00BF00
:102F800000994A1E00920029F9D108BD00000020D6
:102F9000014600BF080900EB8000420001F00F006D
:102FA0001044C0B270470146002203E0521CA1F158
:102FB0000A00C1B20A29F9D2100741EA106070472D
:102FC0002DE9F04706468846002700240025A14643
:102FD000F77B747BB57B00BF40E0012C0BD0032C4A
:102FE00009D0052C07D0072C05D0082C03D00A2CBB
:102FF00001D00C2C0CD11F2D01D26D1C2CE00C2CFF
:1030000002D0641C012527E0012401257F1C23E058
:10301000042C05D0062C03D0092C01D00B2C06D192
:103020001E2D01D26D1C17E0641C012514E0022C3A
:1030300012D11C2D01D26D1C0EE01C2D08D1B8B28E
:1030400000F0A0F808B16D1C06E0641C012503E047
:103050001D2D01D1641C012509F10109C145BCD315
:10306000F7737473B573EAB2E1B2384600F0EBF867
:103070003073BDE8F08770B504460025FDF77CFD90
:10308000054607E0FDF778FD401BB0F57A7F01D9D2
:10309000032070BD2068406800F020000028F1D0B7
:1030A0002068406840F01000216848600020F0E788
:1030B00070B5044600252068406820F010002168A3
:1030C0004860FDF759FD054607E0FDF755FD401B3B
:1030D000B0F57A7F01D9032070BD2068406800F008
:1030E00020000028F1D00020F6E7000010B52048AD
:1030F00000684068C0F3400070B11D48FEF72CFA2C
:103100006FF002001A49096848601A48006840F0E8
:1031100004001849086024E015480068406800F081
:103120000100F0B114480078012812D1FDF756FAD9
:10313000124800780A2807D10020104908700E496B
:103140000870FDF737FA04E00C480078401C0B4982
:1031500008700B4801F00AF86FF001000449096893
:1031600048606FF0040002490968486010BD000023
:1031700064010020007000402A0000203000002080
:1031800014000020014601F0030008B10020704740
:103190006420B1FBF0F200FB121008B10120F6E749
:1031A0004FF4C870B1FBF0F200FB121008B9012017
:1031B000EDE70020EBE70146002200230868006AE3
:1031C00082B20868406A83B243EA0240704730B571
:1031D000014600220023002400200D68AD69AAB238
:1031E0000D68ED69ACB20D68AD69ABB29A4205D01D
:1031F0000D68ED6963F31F45284601E044EA02408B
:1032000030BD7CB505460C4600200190A0798DF8B4
:103210000000207A8DF80100A07A8DF8020028467F
:10322000FEF73AFC002269462846FEF7C7FAE08816
:103230002289104462891044012202EB40010720D8
:1032400001F0F6FD7CBDF0B504460B4600210025DB
:1032500004F5FA61032B1BD2C3EBC30000EB031090
:103260000926B0FBF6F01044001D4618481E06EB78
:1032700090066427B0FBF7F0361A481EBF00B0FB7B
:10328000F7F030440726B0FBF6F706FB17051AE007
:10329000C3EBC30000EB03100926B0FBF6F01044AB
:1032A000001D084400EB91006426B1FBF6F6801B7C
:1032B0004FF4C876B1FBF6F63044801E0726B0FB0B
:1032C000F6F706FB1705E8B2F0BD70B504460D46EB
:1032D00000262046FFF7CFFE08B101260AE0280CA1
:1032E00021680862A8B2216848622046FFF7E0FE24
:1032F00000B10126304670BD70B504460D4600266B
:103300002046FFF7B8FE08B101260AE0280C216824
:103310008861A8B22168C8612046FFF7C9FE00B1E4
:103320000126304670BD704704480068006820F0F0
:10333000010002490968086070470000640100202C
:1033400004480068006840F001000249096808600C
:10335000704700006401002010B5FDF713FC10BD9C
:103360001148006840F001000F49086008464068B5
:103370000E4908400C494860084600680C4908405E
:10338000094908600846006820F480200860084663
:10339000406820F4FE0048604FF41F008860C803B6
:1033A0000449086070470000001002400000FFF868
:1033B000FFFFF6FE08ED00E010B50248FEF738FC0E
:1033C00010BD00008C00002010B50248FEF730FC54
:1033D00010BD0000D400002010B50248FEF728FC04
:1033E00010BD00001C01002010B50268184B984267
:1033F00008D0B0F1804F05D0164B984202D0164B42
:10340000984203D122F070024B681A43104B984245
:1034100008D0B0F1804F05D00E4B984202D00E4B31
:10342000984203D122F44072CB681A4322F0800301
:103430004C6943EA040202608B68C3620B688362D2
:10344000034B984201D10B6903630123436110BD13
:10345000002C0140000400400008004070B5054603
:103460006C6A0020E085E0842046FEF7F2FC70BD27
:103470000168C96821F490710268D16001684969E6
:1034800021F0010102685161202180F83A10704753
:1034900010B504462068C06820F040002168C8606C
:1034A000202084F839002046FEF798FE002010BD49
:1034B00070B5044694F83A00222847D1A068B0F5C8
:1034C000805F0CD1206950B90025A66A2068406849
:1034D000C0F308003080A06A801CA06215E0A56AD5
:1034E0000026A068B0F5805F03D0A06828B92069E5
:1034F00018B920684068287004E02068406800F02F
:103500007F002870A06A401CA062E08D401E80B23F
:10351000E085C8B92068C06820F020002168C86034
:103520002068C06820F480702168C8602068406905
:1035300020F0010021684861202084F83A002046EC
:10354000FEF7FEFD002070BD0020FCE70220FAE738
:1035500070B504462168096921F44051E2681143BD
:10356000226811612269A1681143626941EA02057A
:103570002168C96841F20C62914329432268D160F5
:103580002168496921F44071A2691143226851619F
:103590002D4A2168914202D1FDF72EFD01E0FDF791
:1035A0001BFD00EBC00101EB001162689200B1FB52
:1035B000F2F100EBC00202EB001263689B00B2FB69
:1035C000F3F26423B2FBF3F202EBC20303EB021249
:1035D000A1EB8201322202EB01116422B1FBF2F174
:1035E00001F0F00100EBC00202EB001263689B00E7
:1035F000B2FBF3F26423B2FBF3F201EB021200EB35
:10360000C00101EB001163689B00B1FBF3F100EB1B
:10361000C00303EB00136668B600B3FBF6F3642641
:10362000B3FBF6F303EBC30606EB0313A1EB830135
:10363000322303EB01116423B1FBF3F101F00F011D
:1036400011442268916070BD00380140014691F834
:103650003900212828D18868B0F5805F0BD108692E
:1036600048B90A6A1088C0F308000B685860086AF5
:10367000801C086205E00B6A581C086218780B6809
:103680005860C88C401E80B2C88458B90868C068A9
:1036900020F080000B68D8600868C06840F04000E7
:1036A0000B68D860002070470220FCE710B5024884
:1036B000FEF7D0FB10BD00004029002000BFFEE750
:1036C00002480068C0F30220704700000CED00E0E3
:1036D00010B5002804DB0A07130E054A135406E050
:1036E0000A07140E034A00F00F031B1FD45410BD29
:1036F00000E400E018ED00E000BF704700BF704735
:1037000010B5FFF727FA0C480078022807D00220EE
:10371000094908700949087000F052FD0AE00020CC
:10372000054908700549087001F028FB00210220B6
:1037300001F080FE10BD000071000020700000202C
:1037400010B500F02DFB0446012C34D1354800782B
:1037500068B93548C088172805DA3348C088401C46
:103760003149C8805DE000202F49C88059E02D48CC
:10377000007801280DD12C4800893B2805DA2A4819
:103780000089401C284908814BE000202649088117
:1037900047E024480078022843D1234840893B2849
:1037A00005DA21484089401C1F49488139E0002042
:1037B0001D49488135E0022C33D11A48007868B998
:1037C0001948C088002805DD1748C088401E1649E2
:1037D000C88026E017201449C88022E011480078EC
:1037E00001280DD110480089002805DD0E48008908
:1037F000401E0D49088114E03B200B49088110E070
:103800000848007802280CD107484089002805DDC7
:1038100005484089401E0449488102E03B20024996
:10382000488110BD320000203400002010B500F0A7
:10383000B7FA0446012C6DD16E48007880B96E4805
:10384000008840F6B831884205DA6B480088401C91
:1038500069490880CCE04FF4FD6067490880C7E003
:103860006448007801280DD1634840880C2805DAA7
:1038700061484088401C60494880B9E001205E49A9
:103880004880B5E05B48007802280DD15A4880880E
:103890001F2805DA58488088401C57498880A7E0CF
:1038A000012055498880A3E05248007803280DD1B3
:1038B0005148C088172805DA4F48C088401C4E4937
:1038C000C88095E000204C49C88091E049480078C4
:1038D00004280DD1484800893B2805DA464800896C
:1038E000401C4549088183E00020434908817FE06E
:1038F0004048007805287BD13F4840893B2805DABD
:103900003D484089401C3C49488171E000203A49CB
:1039100048816DE0022C6BD13648007878B9364882
:103920000088B0F57A7F05DD33480088401E3249B3
:1039300008805DE04FF4FD602F49088058E02D4875
:10394000007801280DD12C484088012805DD2A483F
:103950004088401E284948804AE00C20264948807B
:1039600046E02448007802280DD1234880880128A9
:1039700005DD21488088401E1F49888038E01F20CF
:103980001D49888034E01B48007803280DD11A486F
:10399000C088002805DD1848C088401E1649C88028
:1039A00026E017201449C88022E012480078042835
:1039B0000DD111480089002805DD0F480089401EFF
:1039C0000D49088114E03B200B49088110E00948AB
:1039D000007805280CD108484089002805DD0648F4
:1039E0004089401E0449488102E03B200249488149
:1039F00010BD0000220000201400002010B500219E
:103A0000084601F017FD10BD2DE9F0410446294894
:103A10000088A0F5FA6005B226488678077990F804
:103A20000C80012C24D1244890F90000854203D059
:103A30002946022001F0FCF9204890F90000864256
:103A400003D03146032001F0F3F91D4890F900003E
:103A5000874203D03946042001F0EAF9194890F969
:103A60000000804516D04146052001F0E1F911E043
:103A7000022C0FD12946022001F0DAF93146032049
:103A800001F0D6F93946042001F0D2F9414605206B
:103A900001F0CEF968B20849087070B207490870A1
:103AA00078B2074908704FFA88F006490870BDE8F7
:103AB000F0810000140000202C0000202D000020C8
:103AC0002E0000202F00002010B5002002490870B1
:103AD000FFF794FF10BD00007100002010B5002119
:103AE000012001F0A7FC01F01DFA00200249087036
:103AF00006200249087010BD7000002071000020EF
:103B000038B504460D4600BF00BF1348C06940F0F9
:103B100001001149C8610846C06900F00100009029
:103B200000BF00BF00BF88040C490860084645601C
:103B300000218160C4600161FDF7EAFF00220421D9
:103B40001C20FDF776F81C20FDF763F800BF034842
:103B5000FEF74EF800BF38BD001002408C00002078
:103B600038B504460D4600BF00BF1348C06940F099
:103B700002001149C8610846C06900F002000090C7
:103B800000BF00BF00BF0D480D49086008464560F2
:103B900000218160C4600161FDF7BAFF00220421A9
:103BA0001D20FDF746F81D20FDF733F800BF04483F
:103BB000FEF71EF800BF38BD0010024000040040B0
:103BC000D400002038B504460D4600BF00BF1A4897
:103BD000C06940F004001849C8610846C06900F097
:103BE0000400009000BF00BF00BF144814490860E3
:103BF0000846456000218160C4600161FDF788FFCF
:103C0000002206211E20FDF714F81E20FDF701F802
:103C1000062001F001F920B90A480188062001F0C8
:103C200007F9062001F0F8F80649088000BF0448AB
:103C3000FDF7A2FF00BF38BD0010024000080040A1
:103C40001C01002012000020002008E00021084A8A
:103C500042F82010074A42F82010411C88B2B0F503
:103C6000FA7FF3DB0021044A1170044A1170704797
:103C70007801002048090020580000205900002049
:103C80002DE9F04706460F46904699460025282024
:103C9000FCF79FFA044624B90BA201210846FFF75E
:103CA0002DF92660676084F82080C4F8249006E02F
:103CB000002104F1080040F82510681CC5B2062D4B
:103CC000F6DB2046BDE8F0874552524F5200000017
:103CD00001490860704700008000002010B50446CC
:103CE0004FF47A7104FB01F000F002F810BD0000FF
:103CF00070B5034600224FF0E02675690D4E366818
:103D000003FB06F44FF0E026B16910E04FF0E02627
:103D1000B06988420BD0884202D20E1A324402E0C7
:103D20002E1A0E4432440146A24200D300E0EDE7D1
:103D300000BF70BD8000002010B505A20421022044
:103D4000FFF7DCF805A205210320FFF7D7F810BD27
:103D5000202020202D20202D2020000020203A206F
:103D6000203A20200000000000B50948007858B92A
:103D7000012007490870002006490870FFF764FF1A
:103D800000200549087002E000200149087000BDCC
:103D9000500000205A0000206900002070470000F9
:103DA000044801780020034A107009B108467047A2
:103DB0000020FCE74B00002001480078704700001D
:103DC0000800002000200449097821B10249087840
:103DD0000021014A117070474C0000200020044966
:103DE000097821B1024908780021014A1170704711
:103DF000090000202DE9FF4F87B007461546149EA5
:103E0000159800284CD1012115980170DFF8148213
:103E10004FF00009002432E000BF4FF48071824867
:103E2000FCF79CFE0128F8D004A9072000F05FFBF6
:103E30009DF810008007800B9DF8111040EA0120CA
:103E40009DF81210084345F824009DF813008007E0
:103E5000800B9DF8141040EA01209DF815100843CE
:103E600047F8240055F82400404501D255F8248035
:103E700055F82400484501D955F82490641C089849
:103E80008442C9DB55F824A068486949694A6A4BED
:103E9000CDE9002102902A463846089900F088FBB7
:103EA000642416E055F82410A4F1640045F82010AD
:103EB00057F8241047F8201055F82400404501D247
:103EC00055F8248055F82400484501D955F8249028
:103ED000641CB4F5FA7FE5DB4FF4C87486E0601E1D
:103EE00055F820A000BF4FF480714F48FCF736FE14
:103EF0000128F8D004A9072000F0F9FA9DF8100075
:103F00008007800B9DF8111040EA01209DF81210E7
:103F1000084345F824009DF813008007800B9DF8A6
:103F2000141040EA01209DF81510084347F82400BA
:103F300055F82400504520D955F82410A1EB0A006B
:103F400001F0CAFE0690A9EB080001F0C5FE01468B
:103F50000390069801F0E2FD06903849069801F0BA
:103F6000CFFE0690069801F09BFEABEB000BBBF179
:103F7000000F21DA4FF0000B1EE055F82410AAEBD9
:103F8000010001F0A9FE0690A9EB080001F0A4FED3
:103F900001460390069801F0C1FD06902749069856
:103FA00001F0AEFE0690069801F07AFE8344BBF164
:103FB000FF0F01DD4FF0FF0B1C48007801280FD1E7
:103FC0001B48006878280BDA1A480078012807D1C6
:103FD000174800783070184801780A98017004E09A
:103FE0000020307000210A980170641CB4F5FA7F3B
:103FF000FFF675AF3078002802DC0020307002E058
:10400000307814383070094809490A4A0A4BCDE91A
:10401000002102902A463846089900F0C9FA0BB0F0
:10402000BDE8F08FFFFF030000080140680000209A
:1040300064000020600000205C00002000007F433E
:10404000002005490978012904D103490878002195
:10405000014A1170704700004900002010B500248B
:1040600080213248FCF77AFD70B91420FFF736FE44
:1040700000BF80212D48FCF771FD0028F9D01420E5
:10408000FFF72CFE01244FE001212948FCF766FDD3
:1040900070B91420FFF722FE00BF01212448FCF76D
:1040A0005DFD0028F9D01420FFF718FE02243BE044
:1040B00001211E48FCF752FD01280ED11420FFF704
:1040C0000DFE00BF01211948FCF748FD0128F9D079
:1040D0001420FFF703FE032426E002211448FCF716
:1040E0003DFD70B91420FFF7F9FD00BF0221104813
:1040F000FCF734FD0028F9D01420FFF7EFFD04246D
:1041000012E020210948FCF729FD68B91420FFF7C7
:10411000E5FD00BF20210548FCF720FD0028F9D06F
:104120001420FFF7DBFD0524204610BD00080140E8
:10413000000C014010B5022000F06EFE00F5FA60A0
:1041400009490880032000F067FE074948800420E1
:1041500000F062FE04498880052000F05DFE0249FF
:10416000888100F0B9FE10BD1400002010B504468F
:10417000002210491048FDF734FA00220F490E487A
:10418000FDF706FA0D48C07800F5FA6020800B486C
:104190004078608009488078A08006480078E080F8
:1041A0000448407820810348807860810348007883
:1041B000A08110BD23000020640100202600002003
:1041C00010B500BF0548FDF7D7FC00BF002004492B
:1041D00008700448FFF7CAFF10BD00008C000020E3
:1041E000320000203400002010B500BF0448FDF765
:1041F000C3FC00BF002003490870FFF795F810BD0D
:104200008C0000202200002010B500BF0248FDF7FE
:10421000B3FC00BF10BD0000D400002010B5FEF7B5
:1042200099FCFCF76DFD10BD10B50021012001F0D7
:1042300001F910BD10B5002002490870FFF7DEFB40
:1042400010BD00007100002010B50021012001F018
:10425000F1F800F067FE00200249087005200249CD
:10426000087010BD700000207100002010B5FFF72D
:104270007BFD0C490968096808680BA1FCF71EF86A
:1042800028B90BA0074909680968086004E006A07E
:1042900004490968096808600021022001F0CAF891
:1042A00010BD00006C000020BFAACABC00000000C6
:1042B000D4DDCDA30000000010B5FEF7BDF910BDA0
:1042C00010B5FFF7CBFE1E490870FFF7B9FE70B1BD
:1042D0001C480078012804D11B48006808B9FEF783
:1042E0000BFA194909680968486A804727E01448A9
:1042F000007804281DD115480078012802D101F06A
:10430000DDFB1CE011480078022802D101F0C8FB57
:1043100015E00E480078042811D10D480078401CA3
:104320000B49087008460078052808DD0020087051
:1043300005E003480078052801D1FFF76FFF10BDA5
:1043400004000020700000206C000020710000209C
:1043500048000020FCF722FC4FF4E01001F02CFB99
:104360004820FFF7B5FCFDF7C1FFFEF795FCFCF711
:104370006DF9FEF755FBFCF7F9F8FDF74DFFFDF77A
:1043800031FF4FF4E13001F0ADFBFFF795FF41F64F
:104390001F4142F20F70FFF715FC41F61F416320E9
:1043A000FFF7DEFB41F61F4141F28730FFF7A8FB24
:1043B0004BE0FFF785FF25480078012802D101F086
:1043C000E9F942E02148007802280DD12048007820
:1043D000012802D100F088FE37E01D48007802284D
:1043E00033D100F0F7FD30E01848007868BB18487A
:1043F0000078032802D101F0A7F91DE014480078E5
:10440000042802D101F000FA16E0114800780528CE
:1044100003D1002000F0C6FF0EE00D48007806280A
:1044200003D1012000F0BEFF06E00A480078012811
:1044300002D1002007490870FFF7C4FC04461CB1F4
:104440002146022000F0F6FF00BFB2E77000002016
:10445000710000206900002070B50446FEF77AF86C
:10446000AE20FEF747F8FEF7B9F800B119E0204694
:10447000FEF740F8FEF7B2F800B112E0FEF76AF876
:10448000AF20FEF737F8FEF7A9F800B109E00020E9
:10449000FDF7E0FF0546FDF7BBFFFEF77DF8284678
:1044A00070BDFEF779F80020FAE770B505460C46B6
:1044B000FEF750F8AE20FEF71DF8FEF78FF800B1BA
:1044C00011E02846FEF716F8FEF788F800B10AE07A
:1044D0002046FEF70FF8FEF781F800B103E0FEF783
:1044E0005BF8012070BDFEF757F80020FAE770B5C1
:1044F00005460C460020FFF7AFFF0120FFF7ACFF99
:10450000FEF728F8AE20FDF7F5FFFEF767F800B1DB
:104510002AE02846FDF7EEFFFEF760F800B123E041
:10452000FEF718F8AF20FDF7E5FFFEF757F800B1EA
:104530001AE00120FDF78EFF20700120FDF78AFFB1
:1045400060700120FDF786FFA0700120FDF782FF5B
:10455000E0700120FDF77EFF20710020FDF77AFF5B
:104560006071FEF719F800BFFEF716F870BD2DE96F
:10457000F84705460C4616461F46DDE90A9ADDF85F
:1045800024803B46324621462846CDF8008000F084
:104590008FFA4B4632462146284600F0C6FA20687C
:1045A000504501DA206800E050462060BDE8F887F9
:1045B0002DE9FF4FC6B0884699460020459000245B
:1045C00006E0469850F82410459808444590641C2D
:1045D0004445F6DB4598B0FBF8F04590002408E030
:1045E000469850F824104598081AFE4941F82400CE
:1045F000641C4445F4DB002417E0FA4850F824100A
:104600000246601C52F820000144A01C52F8200011
:104610000144E01C52F820000F183846F91707EB48
:104620009171891042F82410641CB4F5F87FE4DB22
:1046300000240AE0EB49601C51F8200051F82410D6
:10464000401AE94941F82400641CB4F5F77FF1DD14
:1046500000240EE0E44951F824200B46611C53F875
:104660002110501800EBD07149101A4642F824105E
:10467000641CB4F5F77FEDDB00251BE000204390C0
:104680002C460BE0D84850F82410601BD74A32F86B
:104690001020439801FB12004390641C681D844263
:1046A000F0DB40F27A41439890FBF1F0CE4941F8BB
:1046B00025006D1CB5F5F47FE0DD0020419000245D
:1046C00010E0C94850F82400002803DDC64850F81F
:1046D000240003E0C44850F82400404241990844B3
:1046E0004190641CB4F5F77FEBDD40F2EF11419887
:1046F00090FBF1F0419005210822419840F2EF1320
:10470000CDE901210090B84A40A912A8FFF72FFF78
:10471000002011904098022821DB01240BE012A810
:1047200050F82410601E12AA52F82000091A11989D
:1047300008441190641C40988442F0DB4098401E6D
:10474000119991FBF0F0119041F27071119891FB69
:10475000F0F15498016001215598017005E0A449D9
:1047600054980160002155980170002407E012A8B8
:1047700050F82400801C30A941F82400641C4098A3
:104780008442F4DB00240CE0469850F8240095495C
:1047900041F82400489850F82400964941F8240034
:1047A000641C4445F0DB0020429000242DE00120F1
:1047B000449030A850F824A04FF080703F900AF148
:1047C0000500B0F5F77F1FDC0A3800281CDD054620
:1047D00011E0844850F825103F9881420ADA449845
:1047E00008B1002044907F4850F825003F9021A850
:1047F00040F824506D1C0AF105008542E9DB44981D
:1048000010B94298401C4290641C40988442CEDB10
:104810004298022808DA7648C9F800000021539827
:1048200001704AB0BDE8F08F00242EE06D4951F8C8
:1048300024200B46611C53F821100A44A11C53F894
:1048400021100A44E11C53F821105018C11700EB45
:10485000917189101A4642F82410664951F82420B3
:104860000B46611C53F821100A44A11C53F8211077
:104870000A44E11C53F821105018C11700EB917144
:1048800089101A4642F82410641CB4F5F87FCDDB79
:10489000002004900026002404E0002005A941F82F
:1048A0002400641C052CF8DB00240DE021A850F83E
:1048B0002400B0F5FA7F06DD4D48C9F8000000215C
:1048C00053980170ADE7641C42988442EEDB0024EB
:1048D000AFE04FF07F400D900C9021A9601C51F883
:1048E000200051F82410401A0A2879DD21A850F838
:1048F000245016E03B4850F825100C98814204DD06
:10490000384850F825000C900A953A4850F8251080
:104910000D98814204DD374850F825000D900B9525
:104920006D1C21A9601C51F82000A842E2DC601C2B
:1049300051F820002F4951F8200021A951F82410E6
:104940002C4A52F82110401A21A951F824200B9921
:10495000891A4843109021A9601C51F8200051F891
:104960002410411A109890FBF1F021A951F824105D
:10497000204A52F821100844109011460B9851F823
:1049800020101098081A109021A9601C51F82000DE
:10499000144951F8200021A951F82410114A52F865
:1049A0002110401A21A951F824200A99891A484354
:1049B0000F9021A9601C51F8200051F82410411AD1
:1049C0000F9890FBF1F021A951F82410054A52F8F4
:1049D000211008440F9011460B9851F820100BE05D
:1049E00026E00000D818002018110020BE6A000838
:1049F00019FCFFFFA82000200F98081A0F900C99AF
:104A000010984843C01103900D990F984843C7115F
:104A1000002F0DDD052E0BDA039848B1039800EB4B
:104A20008000800090FBF7F005A941F82600761C75
:104A3000641C4298401EA0423FF74BAF314605A888
:104A400000F0ACF8304606EBD0714FEA610BBBF1D9
:104A5000010F0CDDABF1010105AA52F8211052F84B
:104A60002B20881800EBD0714910049103E005A8B1
:104A700050F82B000490049802280DDD0498B82803
:104A80000ADA09490498085C0E900E98C9F80000EB
:104A900001215398017005E00448C9F80000002185
:104AA0005398017000BFBCE6FC6A000819FCFFFFC8
:104AB000F0B505461C46059E012000270F6030E03A
:104AC00052F82070B7422BDD52F820C0471E52F832
:104AD0002770BC4524DD012300E05B1CC718A742FA
:104AE00007DA52F8207000EB030C52F82CC067452F
:104AF000F3D052F8207000EB030C52F82CC067453D
:104B00000CDD0F680F2F09DAD1F800C00CF1010796
:104B10000F6045F82C005F1C384402E0184400E0A8
:104B2000401C671E8742CBDCF0BD2DE9F04F0546E7
:104B30000C469246984629465046226800F049F8AD
:104B40004FF0FF3621E0D4F800B0701C2060771CD5
:104B500018E055F82710701C10B94FF0FF3001E035
:104B600055F82600A1EB0009C14503DCC8F100009F
:104B7000814506DA55F827102268501C206045F858
:104B800022107F1C5F45E4DB761C2068B042DADC33
:104B90002846216800F002F8BDE8F08F30B50C46D9
:104BA000012213E050F82230114605E04D1E50F866
:104BB000255040F82150491E002904DD4D1E50F8B3
:104BC00025509D42F2DC40F82130521CA242E9DB24
:104BD00030BDF0B503461546012217E051F82240DA
:104BE000104605E0461E51F8266041F82060401E40
:104BF000002808DD53F82470461E51F8266053F84B
:104C00002660B742EEDC41F82040521CAA42E5DBA8
:104C1000F0BD000010B500200449087000210120FB
:104C200000F008FC00F02EFF10BD00007000002016
:104C300010B50448007820B9FFF77EF8012001493B
:104C4000087010BD6900002010B50648007838B91A
:104C500005A209210220FEF751F90120014908703F
:104C600010BD00006900002020203A20203A2020BA
:104C70000000000010B50548007830B9FFF75CF877
:104C800000F0F4FE01200149087010BD6900002009
:104C900010B50648007838B905A205210220FEF7B4
:104CA000A7F801200149087010BD0000690000202C
:104CB000BAF3D0DDC3DF000010B50848007860B952
:104CC00007A205210120FEF793F807A2092102207F
:104CD000FEF714F901200149087010BD6900002099
:104CE000D0C4C2CA00000000202020424D50000065
:104CF00010B50D480078B0B90CA205210120FEF7CF
:104D000077F80CA209210220FEF7F8F80BA2052182
:104D10000320FEF76DF80BA209210420FEF7EEF840
:104D200001200149087010BD69000020D0C4C2CA2A
:104D300000000000202020424D500000D1AAD1F5F3
:104D4000000000002020250010B50848007860B958
:104D500007A205210120FEF74BF807A20921022036
:104D6000FEF7CCF801200149087010BD6900002051
:104D7000D1AAD1F5000000002020250010B500BF09
:104D80000448FCF735FF00BF03490448FEF739FA31
:104D900010BD00008C0000203400002064010020C1
:104DA00010B500BF0548FCF723FF00BF00F0C6F8B0
:104DB00000F092F8FEF7C4FA10BD00008C0000204D
:104DC00010B5FDF7C7FE01200449087004480068CB
:104DD0000068406802490968086010BD7000002042
:104DE0006C00002010B50848006840F00400064937
:104DF00008600120FBF7B0FC0348006840F00800A1
:104E00000149086010BD0000007000400020014909
:104E1000086070470C00002070B504462146034826
:104E2000FCF776FB0546284670BD000064010020B3
:104E300070B504460D46FBF74FFF2A46214602484F
:104E4000FCF772FB70BD00006401002010B500206B
:104E500002490870FEF7D2FD10BD0000710000206D
:104E600010B50E490968096808680DA1FBF726FA14
:104E700038B90DA00949096809680860FFF7C4F945
:104E800006E007A0054909680968086000F08AFD86
:104E90000021022000F0CEFA10BD00006C000020BE
:104EA000BFAACABC00000000D4DDCDA300000000F2
:104EB00010B50021012000F0BDFA00200249087061
:104EC00003200249087010BD70000020710000200E
:104ED00010B5FFF79BFF10BD10B50C480078A0F58A
:104EE000FA600B49C8700948807848700748007913
:104EF00088700648007B08700648FCF7CDFD00224C
:104F000003490448FCF7DEFC10BD0000140000203B
:104F1000260000206401002010B50021012000F0CF
:104F200089FA10BD0020014908707047690000200F
:104F300001490880704700001000002010B50948A2
:104F40008079094908700748007A48700548807AD6
:104F500088700648FCF7A0FD002203490348FCF7CF
:104F60002DFD10BD1400002023000020640100204E
:104F700010B510480078032190FBF1F000EB4000E1
:104F80000D4908440B490978032291FBF2F302FB17
:104F90001311445C07480078032190FBF1F018B925
:104FA000204600F00BF804E0C4EB0411880000F088
:104FB00005F810BD480000204200002010B504464E
:104FC0000348048021460620FFF732FF10BD000091
:104FD0001200002010B5FEF7EFFE044600F044FC7E
:104FE000FFF726FE3D480288042319460220FDF7FC
:104FF00063FF3A484288022309211846FDF75CFF07
:105000003648828802230C211846FDF755FF3448A4
:105010000078E8B9012C07D13048C2880223052165
:105020000320FDF749FF04E02EA205210320FDF730
:1050300065FF2A480289022308210320FDF73CFF6F
:105040002648428902230B210320FDF735FF42E069
:105050002348007801281DD1012C07D11F4802895F
:10506000022308210320FDF727FF04E01DA20821E9
:105070000320FDF743FF1948C288022305210320BE
:10508000FDF71AFF1548428902230B210320FDF783
:1050900013FF20E01248007802281CD1012C07D110
:1050A0000E48428902230B210320FDF705FF04E08F
:1050B0000CA20B210320FDF721FF0848C288022320
:1050C00005210320FDF7F8FE044802890223082188
:1050D0000320FDF7F1FEFEF733FB10BD3400002086
:1050E000320000202020000010B5FEF765FE0446C7
:1050F00000F0BAFBFFF79CFDA5480078002832D1EC
:10510000012C07D1A3480288042319460220FDF789
:10511000D3FE04E0A0A204210220FDF7EFFE9D488B
:105120004288022309211846FDF7C6FE9948828865
:1051300002230C211846FDF7BFFE9648C2880223C1
:1051400005210320FDF7B8FE9248028902230821B9
:105150000320FDF7B1FE8F48428902230B21032073
:10516000FDF7AAFE11E18A480078012832D1012C0E
:1051700007D188484288022309211846FDF79CFE82
:1051800004E087A209210220FDF7B8FE81480288C9
:10519000042319460220FDF78FFE7E4882880223F1
:1051A0000C211846FDF788FE7A48C28802230521A3
:1051B0000320FDF781FE774802890223082103209E
:1051C000FDF77AFE7348428902230B210320FDF785
:1051D00073FEDAE06E480078022832D1012C07D144
:1051E0006C48828802230C211846FDF765FE04E016
:1051F0006BA20C210220FDF781FE66480288042381
:1052000019460220FDF758FE624842880223092110
:105210001846FDF751FE5F48C2880223052103208E
:10522000FDF74AFE5B480289022308210320FDF7AF
:1052300043FE5848428902230B210320FDF73CFE20
:10524000A3E053480078032832D1012C07D15148FC
:10525000C288022305210320FDF72EFE04E050A2A0
:1052600005210320FDF74AFE4A4802880423194617
:105270000220FDF721FE47484288022309211846F3
:10528000FDF71AFE4348828802230C211846FDF7D9
:1052900013FE40480289022308210320FDF70CFE7B
:1052A0003C48428902230B210320FDF705FE6CE0F8
:1052B00037480078042832D1012C07D135480289BB
:1052C000022308210320FDF7F7FD04E034A20821A2
:1052D0000320FDF713FE2F480288042319460220FD
:1052E000FDF7EAFD2B484288022309211846FDF705
:1052F000E3FD2848828802230C211846FDF7DCFDD7
:105300002448C288022305210320FDF7D5FD21484A
:10531000428902230B210320FDF7CEFD35E01C4816
:105320000078052831D1012C07D11A48428902237F
:105330000B210320FDF7C0FD04E019A20B2103207F
:10534000FDF7DCFD13480288042319460220FDF70F
:10535000B3FD10484288022309211846FDF7ACFD31
:105360000C48828802230C211846FDF7A5FD094848
:10537000C288022305210320FDF79EFD054802890E
:10538000022308210320FDF797FDFEF74FFA10BD19
:105390002200002014000020202020200000000017
:1053A000202000001CB504464CB9FFF785FC032300
:1053B0001948027809210220FDF77EFD1DE0012C2D
:1053C00009D1FFF7C1FC02231448027809211846CD
:1053D000FDF772FD11E0022C0FD1FFF789FC0323CA
:1053E0000D48027809210220FDF766FD02230B48D3
:1053F000027809210420FDF75FFD0948007850B9C3
:1054000008480549054B084ACDE9001007480168DE
:105410000748FEF7EFFC1CBD580000205900002093
:10542000500000205A0000204809002054000020AD
:10543000780100202DE9FF5F804689464FF0000A81
:1054400000260024B8F1010F3BD1BC480068006879
:1054500080680190B94800680779FDF77BFB3FB190
:10546000B64800684279781EB4490968891D0A5413
:105470000120B24909684871B04800680079401CB1
:10548000AE49096808710DE0AC490968096808313E
:1054900051F824100A68611CC8B20121FDF7A8FC6C
:1054A000601CC4B2032C07DCA44800680068083004
:1054B00050F824000028E7D1A04901980968086045
:1054C0002AE1B8F1020F74D19C4800680068466870
:1054D000B9F1010F58D199480068006890F8200090
:1054E000401C062802DB4FF0000A09E093480068E0
:1054F000006890F82000401C06F1080151F820A037
:10550000BAF1000FDCD08D49096809680868FAF71C
:105510008FFE401CC0B2894900900968487988A272
:105520000099FDF7EBFC85480068C0F800A08348AF
:1055300000684079042807DA804800684079401CF8
:105540007E4909684871E7E07C4800684079042892
:10555000B6D1FDF7FFFA79480068006890F820009E
:10556000C01EC5B20DE006F1080151F825100A6809
:10557000611CC8B20121FDF73BFC601CC4B2681C71
:10558000C5B2032CEFDDC7E0B9F1020F56D16B486D
:105590000068006890F8200000280BDD674800686C
:1055A000006890F82000401E06F1080151F820A084
:1055B00002E069E04FF0000ABAF1000FC3D05F4982
:1055C000096809680868FAF733FE401CC0B25B49F5
:1055D0000090096848795AA20099FDF78FFC574856
:1055E0000068C0F800A0554800684079012807DD30
:1055F000524800684079401E5049096848718BE064
:105600004E480068407901289DD1FDF7A3FA4B4828
:105610000068006890F820500DE006F1080151F88C
:1056200025100A68611CC8B20121FDF7E1FB601C6E
:10563000C4B2681CC5B2032CEFDD6DE0B9F1000FF8
:105640006AD13E480068006890F820103B48006826
:105650004079401E081AC5B20DE006F1080151F864
:1056600025100A68611CC8B20121FDF7C1FB601C4E
:10567000C4B2681CC5B2032C4EDC06F1080050F819
:1056800025000028E9D147E0B8F1000F44D1FDF72B
:1056900061FA2A48006800684668D6F804B096F8AF
:1056A00020000390254800680779B81E234909683F
:1056B000891D085C02902148006806601F49029815
:1056C000096848711D4800680079401E1B49096837
:1056D00008710022B81E19490968891D0A540298E8
:1056E000411E0398401AC5B20EE029466B1CDDB27C
:1056F0000BF1080353F821100A68611CC8B201219C
:10570000FDF776FB601CC4B2032C05DC0BF108002E
:1057100050F825000028E8D1084909680968086898
:10572000FAF786FD401CC0B2044900900968487928
:1057300004A20099FDF7E2FBBDE8FF9F6C0000208A
:10574000202020003C2D2D0010B5FFF77DFA1048D9
:1057500000686421B0FBF1F03C21B0FBF1F40223BE
:10576000224609211846FDF7A7FB09480068642175
:10577000B0FBF1F4022322460C211846FDF79CFBF6
:10578000022303480F2102681846FDF795FB10BD60
:105790000C00002010B500F067F8FFF76BFAFEF779
:1057A0001DFB08B1FEF73AFD16480288042319468E
:1057B0000220FDF781FB1348428802230921184685
:1057C000FDF77AFB0F48828802230C211846FDF76B
:1057D00073FB0C48C288022305210320FDF76CFBF4
:1057E00008480289022308210320FDF765FB0548CC
:1057F000428902230B210320FDF75EFB0120FEF707
:1058000003F910BD1400002010B5154800780321DD
:1058100090FBF1F000EB4000124908441049097870
:10582000032291FBF2F302FB1311445C0223224694
:105830000B210120FDF740FB09480078032190FB74
:10584000F1F028B973220D210120FDF797FA04E049
:105850006D220D210120FDF791FAFFF719FA10BD15
:10586000480000204200002010B52648047B26484E
:1058700090F90000A04203D12448007800283DD1CF
:1058800023A204210846FDF739FB072C2FD2DFE8BD
:1058900004F0040A10161C22280020A2062104206D
:1058A000FDF72CFB29E01FA206210420FDF726FBB3
:1058B00023E01EA206210420FDF720FB1DE01DA20F
:1058C00005210420FDF71AFB17E01DA20521042085
:1058D000FDF714FB11E01DA206210420FDF70EFBCD
:1058E0000BE01CA205210420FDF708FB05E01CA22B
:1058F00005210420FDF702FB00BF00BF60B2024992
:10590000087010BD140000202B000020690000204A
:1059100020202020202020202020000053554E440D
:10592000415900004D4F4E444159000054554553D4
:10593000444159005745444E4553444159000000E5
:1059400054485552534441590000000046524944BE
:105950004159000053415455524441590000000040
:105960004552524F5200000010B500200249087005
:10597000FEF744F810BD00007100002010B5FFF7DD
:10598000F7FA10BD10B5002004490870042004493E
:10599000087000210120FFF74DFD10BD70000020B0
:1059A0007100002010B500BF0248FCF721F900BFCC
:1059B00010BD0000D400002030B58FB00546012492
:1059C000282105A8FAF753FC14216846FAF74FFC82
:1059D00001200590000406900020079002200C9002
:1059E000C1030D910E9505A8FBF760FB04460CB1B1
:1059F00000BFFEE70F2000900220019000200290DF
:105A00004FF4806003900020049002216846FBF769
:105A100017FA04460CB100BFFEE70FB030BD10B559
:105A200000210120FFF706FD10BD000010B5FDF7B5
:105A300091F80C480078012808D001200949087025
:105A4000022009490870FEF7CFFB0AE00020054953
:105A5000087005490870FFF7A3F900210220FFF73D
:105A6000E9FC10BD710000207000002010B500207E
:105A7000FFF75EFA00BF0248FCF77EF800BF10BDDA
:105A80001C01002010B5FEF7A9F90020FFF750FA1D
:105A900000BF0248FCF7ACF800BF10BD1C0100209D
:105AA00005480078401C044908700846007803281F
:105AB00001D10020087070473200002005480078AE
:105AC000401C0449087008460078062801D10020CF
:105AD000087070472200002010B500210120FFF758
